{
  "_format": "hh-sol-artifact-1",
  "contractName": "CosmicNFT",
  "sourceName": "contracts/CosmicNFT.sol",
  "abi": [
    {
      "inputs": [],
      "stateMutability": "nonpayable",
      "type": "constructor"
    },
    {
      "anonymous": false,
      "inputs": [
        {
          "indexed": true,
          "internalType": "address",
          "name": "owner",
          "type": "address"
        },
        {
          "indexed": true,
          "internalType": "address",
          "name": "approved",
          "type": "address"
        },
        {
          "indexed": true,
          "internalType": "uint256",
          "name": "tokenId",
          "type": "uint256"
        }
      ],
      "name": "Approval",
      "type": "event"
    },
    {
      "anonymous": false,
      "inputs": [
        {
          "indexed": true,
          "internalType": "address",
          "name": "owner",
          "type": "address"
        },
        {
          "indexed": true,
          "internalType": "address",
          "name": "operator",
          "type": "address"
        },
        {
          "indexed": false,
          "internalType": "bool",
          "name": "approved",
          "type": "bool"
        }
      ],
      "name": "ApprovalForAll",
      "type": "event"
    },
    {
      "anonymous": false,
      "inputs": [
        {
          "indexed": false,
          "internalType": "address",
          "name": "sender",
          "type": "address"
        },
        {
          "indexed": false,
          "internalType": "uint256",
          "name": "tokenId",
          "type": "uint256"
        },
        {
          "indexed": false,
          "internalType": "string",
          "name": "metadata",
          "type": "string"
        }
      ],
      "name": "NewCosmicNFTMinted",
      "type": "event"
    },
    {
      "anonymous": false,
      "inputs": [
        {
          "indexed": true,
          "internalType": "address",
          "name": "from",
          "type": "address"
        },
        {
          "indexed": true,
          "internalType": "address",
          "name": "to",
          "type": "address"
        },
        {
          "indexed": true,
          "internalType": "uint256",
          "name": "tokenId",
          "type": "uint256"
        }
      ],
      "name": "Transfer",
      "type": "event"
    },
    {
      "inputs": [
        {
          "internalType": "address",
          "name": "to",
          "type": "address"
        },
        {
          "internalType": "uint256",
          "name": "tokenId",
          "type": "uint256"
        }
      ],
      "name": "approve",
      "outputs": [],
      "stateMutability": "nonpayable",
      "type": "function"
    },
    {
      "inputs": [
        {
          "internalType": "address",
          "name": "owner",
          "type": "address"
        }
      ],
      "name": "balanceOf",
      "outputs": [
        {
          "internalType": "uint256",
          "name": "",
          "type": "uint256"
        }
      ],
      "stateMutability": "view",
      "type": "function"
    },
    {
      "inputs": [
        {
          "internalType": "uint256",
          "name": "tokenId",
          "type": "uint256"
        }
      ],
      "name": "getApproved",
      "outputs": [
        {
          "internalType": "address",
          "name": "",
          "type": "address"
        }
      ],
      "stateMutability": "view",
      "type": "function"
    },
    {
      "inputs": [
        {
          "internalType": "address",
          "name": "owner",
          "type": "address"
        },
        {
          "internalType": "address",
          "name": "operator",
          "type": "address"
        }
      ],
      "name": "isApprovedForAll",
      "outputs": [
        {
          "internalType": "bool",
          "name": "",
          "type": "bool"
        }
      ],
      "stateMutability": "view",
      "type": "function"
    },
    {
      "inputs": [],
      "name": "makeACosmicNFT",
      "outputs": [],
      "stateMutability": "nonpayable",
      "type": "function"
    },
    {
      "inputs": [],
      "name": "name",
      "outputs": [
        {
          "internalType": "string",
          "name": "",
          "type": "string"
        }
      ],
      "stateMutability": "view",
      "type": "function"
    },
    {
      "inputs": [
        {
          "internalType": "uint256",
          "name": "tokenId",
          "type": "uint256"
        }
      ],
      "name": "ownerOf",
      "outputs": [
        {
          "internalType": "address",
          "name": "",
          "type": "address"
        }
      ],
      "stateMutability": "view",
      "type": "function"
    },
    {
      "inputs": [
        {
          "internalType": "uint256",
          "name": "tokenId",
          "type": "uint256"
        }
      ],
      "name": "pickRandomColor",
      "outputs": [
        {
          "internalType": "string",
          "name": "",
          "type": "string"
        }
      ],
      "stateMutability": "view",
      "type": "function"
    },
    {
      "inputs": [
        {
          "internalType": "uint256",
          "name": "tokenId",
          "type": "uint256"
        }
      ],
      "name": "pickRandomFirstWord",
      "outputs": [
        {
          "internalType": "string",
          "name": "",
          "type": "string"
        }
      ],
      "stateMutability": "view",
      "type": "function"
    },
    {
      "inputs": [
        {
          "internalType": "uint256",
          "name": "tokenId",
          "type": "uint256"
        }
      ],
      "name": "pickRandomSecondWord",
      "outputs": [
        {
          "internalType": "string",
          "name": "",
          "type": "string"
        }
      ],
      "stateMutability": "view",
      "type": "function"
    },
    {
      "inputs": [
        {
          "internalType": "uint256",
          "name": "tokenId",
          "type": "uint256"
        }
      ],
      "name": "pickRandomThirdWord",
      "outputs": [
        {
          "internalType": "string",
          "name": "",
          "type": "string"
        }
      ],
      "stateMutability": "view",
      "type": "function"
    },
    {
      "inputs": [
        {
          "internalType": "address",
          "name": "from",
          "type": "address"
        },
        {
          "internalType": "address",
          "name": "to",
          "type": "address"
        },
        {
          "internalType": "uint256",
          "name": "tokenId",
          "type": "uint256"
        }
      ],
      "name": "safeTransferFrom",
      "outputs": [],
      "stateMutability": "nonpayable",
      "type": "function"
    },
    {
      "inputs": [
        {
          "internalType": "address",
          "name": "from",
          "type": "address"
        },
        {
          "internalType": "address",
          "name": "to",
          "type": "address"
        },
        {
          "internalType": "uint256",
          "name": "tokenId",
          "type": "uint256"
        },
        {
          "internalType": "bytes",
          "name": "_data",
          "type": "bytes"
        }
      ],
      "name": "safeTransferFrom",
      "outputs": [],
      "stateMutability": "nonpayable",
      "type": "function"
    },
    {
      "inputs": [
        {
          "internalType": "address",
          "name": "operator",
          "type": "address"
        },
        {
          "internalType": "bool",
          "name": "approved",
          "type": "bool"
        }
      ],
      "name": "setApprovalForAll",
      "outputs": [],
      "stateMutability": "nonpayable",
      "type": "function"
    },
    {
      "inputs": [
        {
          "internalType": "bytes4",
          "name": "interfaceId",
          "type": "bytes4"
        }
      ],
      "name": "supportsInterface",
      "outputs": [
        {
          "internalType": "bool",
          "name": "",
          "type": "bool"
        }
      ],
      "stateMutability": "view",
      "type": "function"
    },
    {
      "inputs": [],
      "name": "symbol",
      "outputs": [
        {
          "internalType": "string",
          "name": "",
          "type": "string"
        }
      ],
      "stateMutability": "view",
      "type": "function"
    },
    {
      "inputs": [
        {
          "internalType": "uint256",
          "name": "tokenId",
          "type": "uint256"
        }
      ],
      "name": "tokenURI",
      "outputs": [
        {
          "internalType": "string",
          "name": "",
          "type": "string"
        }
      ],
      "stateMutability": "view",
      "type": "function"
    },
    {
      "inputs": [
        {
          "internalType": "address",
          "name": "from",
          "type": "address"
        },
        {
          "internalType": "address",
          "name": "to",
          "type": "address"
        },
        {
          "internalType": "uint256",
          "name": "tokenId",
          "type": "uint256"
        }
      ],
      "name": "transferFrom",
      "outputs": [],
      "stateMutability": "nonpayable",
      "type": "function"
    }
  ],
  "bytecode": "0x608060405260405180610100016040528060d3815260200162004a0660d39139600890805190602001906200003692919062000a43565b5060405180608001604052806056815260200162004ad960569139600990805190602001906200006892919062000a43565b506040518061010001604052806040518060400160405280600981526020017f46616e746173746963000000000000000000000000000000000000000000000081525081526020016040518060400160405280600481526020017f457069630000000000000000000000000000000000000000000000000000000081525081526020016040518060400160405280600881526020017f5465727269626c6500000000000000000000000000000000000000000000000081525081526020016040518060400160405280600581526020017f4372617a7900000000000000000000000000000000000000000000000000000081525081526020016040518060400160405280600481526020017f57696c640000000000000000000000000000000000000000000000000000000081525081526020016040518060400160405280600781526020017f417765736f6d650000000000000000000000000000000000000000000000000081525081526020016040518060400160405280600681526020017f496e73616e65000000000000000000000000000000000000000000000000000081525081526020016040518060400160405280600681526020017f53706f6f6b790000000000000000000000000000000000000000000000000000815250815250600a9060086200025d92919062000ad4565b506040518061010001604052806040518060400160405280600781526020017f43757063616b650000000000000000000000000000000000000000000000000081525081526020016040518060400160405280600981526020017f4d696c6b7368616b65000000000000000000000000000000000000000000000081525081526020016040518060400160405280600681526020017f4d756666696e000000000000000000000000000000000000000000000000000081525081526020016040518060400160405280600581526020017f50697a7a6100000000000000000000000000000000000000000000000000000081525081526020016040518060400160405280600781526020017f436869636b656e0000000000000000000000000000000000000000000000000081525081526020016040518060400160405280600581526020017f437572727900000000000000000000000000000000000000000000000000000081525081526020016040518060400160405280600881526020017f53616e647769636800000000000000000000000000000000000000000000000081525081526020016040518060400160405280600581526020017f53616c6164000000000000000000000000000000000000000000000000000000815250815250600b9060086200045292919062000ad4565b506040518061012001604052806040518060400160405280600581526020017f4e696e6a6100000000000000000000000000000000000000000000000000000081525081526020016040518060400160405280600681526020017f4e617275746f000000000000000000000000000000000000000000000000000081525081526020016040518060400160405280600581526020017f436f64657200000000000000000000000000000000000000000000000000000081525081526020016040518060400160405280600681526020017f53616b757261000000000000000000000000000000000000000000000000000081525081526020016040518060400160405280600481526020017f476f6b750000000000000000000000000000000000000000000000000000000081525081526020016040518060400160405280600681526020017f536173756b65000000000000000000000000000000000000000000000000000081525081526020016040518060400160405280600781526020017f466967687465720000000000000000000000000000000000000000000000000081525081526020016040518060400160405280600681526020017f486f6c646572000000000000000000000000000000000000000000000000000081525081526020016040518060400160405280600581526020017f467265616b000000000000000000000000000000000000000000000000000000815250815250600c9060096200068292919062000b3b565b506040518061010001604052806040518060400160405280600781526020017f233735336138380000000000000000000000000000000000000000000000000081525081526020016040518060400160405280600781526020017f233038433241380000000000000000000000000000000000000000000000000081525081526020016040518060400160405280600581526020017f626c61636b00000000000000000000000000000000000000000000000000000081525081526020016040518060400160405280600781526020017f233431383441340000000000000000000000000000000000000000000000000081525081526020016040518060400160405280600781526020017f236363326235650000000000000000000000000000000000000000000000000081525081526020016040518060400160405280600581526020017f677265656e00000000000000000000000000000000000000000000000000000081525081526020016040518060400160405280600781526020017f234632373435350000000000000000000000000000000000000000000000000081525081526020016040518060400160405280600781526020017f2331393143314600000000000000000000000000000000000000000000000000815250815250600d9060086200087792919062000ad4565b503480156200088557600080fd5b506040518060400160405280600981526020017f436f736d69634e465400000000000000000000000000000000000000000000008152506040518060400160405280600681526020017f434f534d4943000000000000000000000000000000000000000000000000000081525081600090805190602001906200090a92919062000a43565b5080600190805190602001906200092392919062000a43565b505050620009716040518060400160405280601e81526020017f54686973206973206d79204e465420636f6e74726163742e2057686f612100008152506200097760201b6200124b1760201c565b62000d5c565b62000a17816040516024016200098e919062000c70565b6040516020818303038152906040527f41304fac000000000000000000000000000000000000000000000000000000007bffffffffffffffffffffffffffffffffffffffffffffffffffffffff19166020820180517bffffffffffffffffffffffffffffffffffffffffffffffffffffffff838183161783525050505062000a1a60201b60201c565b50565b60008151905060006a636f6e736f6c652e6c6f679050602083016000808483855afa5050505050565b82805462000a519062000ce6565b90600052602060002090601f01602090048101928262000a75576000855562000ac1565b82601f1062000a9057805160ff191683800117855562000ac1565b8280016001018555821562000ac1579182015b8281111562000ac057825182559160200191906001019062000aa3565b5b50905062000ad0919062000ba2565b5090565b82805482825590600052602060002090810192821562000b28579160200282015b8281111562000b2757825182908051906020019062000b1692919062000a43565b509160200191906001019062000af5565b5b50905062000b37919062000bc1565b5090565b82805482825590600052602060002090810192821562000b8f579160200282015b8281111562000b8e57825182908051906020019062000b7d92919062000a43565b509160200191906001019062000b5c565b5b50905062000b9e919062000bc1565b5090565b5b8082111562000bbd57600081600090555060010162000ba3565b5090565b5b8082111562000be5576000818162000bdb919062000be9565b5060010162000bc2565b5090565b50805462000bf79062000ce6565b6000825580601f1062000c0b575062000c2c565b601f01602090049060005260206000209081019062000c2b919062000ba2565b5b50565b600062000c3c8262000c94565b62000c48818562000c9f565b935062000c5a81856020860162000cb0565b62000c658162000d4b565b840191505092915050565b6000602082019050818103600083015262000c8c818462000c2f565b905092915050565b600081519050919050565b600082825260208201905092915050565b60005b8381101562000cd057808201518184015260208101905062000cb3565b8381111562000ce0576000848401525b50505050565b6000600282049050600182168062000cff57607f821691505b6020821081141562000d165762000d1562000d1c565b5b50919050565b7f4e487b7100000000000000000000000000000000000000000000000000000000600052602260045260246000fd5b6000601f19601f8301169050919050565b613c9a8062000d6c6000396000f3fe608060405234801561001057600080fd5b50600436106101165760003560e01c8063695e9bdb116100a2578063b187301f11610071578063b187301f146102f1578063b88d4fde14610321578063c575757a1461033d578063c87b56dd1461036d578063e985e9c51461039d57610116565b8063695e9bdb1461027d57806370a082311461028757806395d89b41146102b7578063a22cb465146102d557610116565b806323b872dd116100e957806323b872dd146101b55780632de38d68146101d157806342842e0e14610201578063514dc8c61461021d5780636352211e1461024d57610116565b806301ffc9a71461011b57806306fdde031461014b578063081812fc14610169578063095ea7b314610199575b600080fd5b61013560048036038101906101309190612677565b6103cd565b6040516101429190612e3a565b60405180910390f35b6101536104af565b6040516101609190612e55565b60405180910390f35b610183600480360381019061017e91906126c9565b610541565b6040516101909190612d95565b60405180910390f35b6101b360048036038101906101ae919061263b565b6105c6565b005b6101cf60048036038101906101ca9190612535565b6106de565b005b6101eb60048036038101906101e691906126c9565b61073e565b6040516101f89190612e55565b60405180910390f35b61021b60048036038101906102169190612535565b61085c565b005b610237600480360381019061023291906126c9565b61087c565b6040516102449190612e55565b60405180910390f35b610267600480360381019061026291906126c9565b61099a565b6040516102749190612d95565b60405180910390f35b610285610a4c565b005b6102a1600480360381019061029c91906124d0565b610c67565b6040516102ae91906130b5565b60405180910390f35b6102bf610d1f565b6040516102cc9190612e55565b60405180910390f35b6102ef60048036038101906102ea91906125ff565b610db1565b005b61030b600480360381019061030691906126c9565b610dc7565b6040516103189190612e55565b60405180910390f35b61033b60048036038101906103369190612584565b610ee5565b005b610357600480360381019061035291906126c9565b610f47565b6040516103649190612e55565b60405180910390f35b610387600480360381019061038291906126c9565b611065565b6040516103949190612e55565b60405180910390f35b6103b760048036038101906103b291906124f9565b6111b7565b6040516103c49190612e3a565b60405180910390f35b60007f80ac58cd000000000000000000000000000000000000000000000000000000007bffffffffffffffffffffffffffffffffffffffffffffffffffffffff1916827bffffffffffffffffffffffffffffffffffffffffffffffffffffffff1916148061049857507f5b5e139f000000000000000000000000000000000000000000000000000000007bffffffffffffffffffffffffffffffffffffffffffffffffffffffff1916827bffffffffffffffffffffffffffffffffffffffffffffffffffffffff1916145b806104a857506104a7826112e4565b5b9050919050565b6060600080546104be90613349565b80601f01602080910402602001604051908101604052809291908181526020018280546104ea90613349565b80156105375780601f1061050c57610100808354040283529160200191610537565b820191906000526020600020905b81548152906001019060200180831161051a57829003601f168201915b5050505050905090565b600061054c8261134e565b61058b576040517f08c379a000000000000000000000000000000000000000000000000000000000815260040161058290613035565b60405180910390fd5b6004600083815260200190815260200160002060009054906101000a900473ffffffffffffffffffffffffffffffffffffffff169050919050565b60006105d18261099a565b90508073ffffffffffffffffffffffffffffffffffffffff168373ffffffffffffffffffffffffffffffffffffffff161415610642576040517f08c379a000000000000000000000000000000000000000000000000000000000815260040161063990613075565b60405180910390fd5b8073ffffffffffffffffffffffffffffffffffffffff166106616113ba565b73ffffffffffffffffffffffffffffffffffffffff161480610690575061068f8161068a6113ba565b6111b7565b5b6106cf576040517f08c379a00000000000000000000000000000000000000000000000000000000081526004016106c690612f75565b60405180910390fd5b6106d983836113c2565b505050565b6106ef6106e96113ba565b8261147b565b61072e576040517f08c379a000000000000000000000000000000000000000000000000000000000815260040161072590613095565b60405180910390fd5b610739838383611559565b505050565b6060600061077261074e846117c0565b60405160200161075e9190612d2f565b60405160208183030381529060405261196d565b9050600a805490508161078591906133f5565b9050600a81815481106107c1577f4e487b7100000000000000000000000000000000000000000000000000000000600052603260045260246000fd5b9060005260206000200180546107d690613349565b80601f016020809104026020016040519081016040528092919081815260200182805461080290613349565b801561084f5780601f106108245761010080835404028352916020019161084f565b820191906000526020600020905b81548152906001019060200180831161083257829003601f168201915b5050505050915050919050565b61087783838360405180602001604052806000815250610ee5565b505050565b606060006108b061088c846117c0565b60405160200161089c9190612d73565b60405160208183030381529060405261196d565b9050600d80549050816108c391906133f5565b9050600d81815481106108ff577f4e487b7100000000000000000000000000000000000000000000000000000000600052603260045260246000fd5b90600052602060002001805461091490613349565b80601f016020809104026020016040519081016040528092919081815260200182805461094090613349565b801561098d5780601f106109625761010080835404028352916020019161098d565b820191906000526020600020905b81548152906001019060200180831161097057829003601f168201915b5050505050915050919050565b6000806002600084815260200190815260200160002060009054906101000a900473ffffffffffffffffffffffffffffffffffffffff169050600073ffffffffffffffffffffffffffffffffffffffff168173ffffffffffffffffffffffffffffffffffffffff161415610a43576040517f08c379a0000000000000000000000000000000000000000000000000000000008152600401610a3a90612fb5565b60405180910390fd5b80915050919050565b6000610a5860076119a0565b90506000610a658261073e565b90506000610a7283610dc7565b90506000610a7f84610f47565b90506000838383604051602001610a9893929190612c0a565b60405160208183030381529060405290506000610ab48661087c565b90506000600882600985604051602001610ad19493929190612c3b565b60405160208183030381529060405290506000610b1684610af1846119ae565b604051602001610b02929190612cea565b6040516020818303038152906040526119ae565b9050600081604051602001610b2b9190612d51565b6040516020818303038152906040529050610b7a6040518060400160405280601581526020017f0a2d2d2d2d2d2d2d2d2d2d2d2d2d2d2d2d2d2d2d2d000000000000000000000081525061124b565b610ba281604051602001610b8e9190612c84565b60405160208183030381529060405261124b565b610be06040518060400160405280601581526020017f2d2d2d2d2d2d2d2d2d2d2d2d2d2d2d2d2d2d2d2d0a000000000000000000000081525061124b565b610bea338a611b6c565b610bf48982611b8a565b610c17604051806060016040528060258152602001613c00602591398a33611bfe565b610c216007611c9d565b7f42cc7f0f10a72cdbd55ba04530a13b628bb11bcb08f6a90605aa005416e465ab338a83604051610c5493929190612dfc565b60405180910390a1505050505050505050565b60008073ffffffffffffffffffffffffffffffffffffffff168273ffffffffffffffffffffffffffffffffffffffff161415610cd8576040517f08c379a0000000000000000000000000000000000000000000000000000000008152600401610ccf90612f95565b60405180910390fd5b600360008373ffffffffffffffffffffffffffffffffffffffff1673ffffffffffffffffffffffffffffffffffffffff168152602001908152602001600020549050919050565b606060018054610d2e90613349565b80601f0160208091040260200160405190810160405280929190818152602001828054610d5a90613349565b8015610da75780601f10610d7c57610100808354040283529160200191610da7565b820191906000526020600020905b815481529060010190602001808311610d8a57829003601f168201915b5050505050905090565b610dc3610dbc6113ba565b8383611cb3565b5050565b60606000610dfb610dd7846117c0565b604051602001610de79190612cc8565b60405160208183030381529060405261196d565b9050600b8054905081610e0e91906133f5565b9050600b8181548110610e4a577f4e487b7100000000000000000000000000000000000000000000000000000000600052603260045260246000fd5b906000526020600020018054610e5f90613349565b80601f0160208091040260200160405190810160405280929190818152602001828054610e8b90613349565b8015610ed85780601f10610ead57610100808354040283529160200191610ed8565b820191906000526020600020905b815481529060010190602001808311610ebb57829003601f168201915b5050505050915050919050565b610ef6610ef06113ba565b8361147b565b610f35576040517f08c379a0000000000000000000000000000000000000000000000000000000008152600401610f2c90613095565b60405180910390fd5b610f4184848484611e20565b50505050565b60606000610f7b610f57846117c0565b604051602001610f679190612ca6565b60405160208183030381529060405261196d565b9050600c8054905081610f8e91906133f5565b9050600c8181548110610fca577f4e487b7100000000000000000000000000000000000000000000000000000000600052603260045260246000fd5b906000526020600020018054610fdf90613349565b80601f016020809104026020016040519081016040528092919081815260200182805461100b90613349565b80156110585780601f1061102d57610100808354040283529160200191611058565b820191906000526020600020905b81548152906001019060200180831161103b57829003601f168201915b5050505050915050919050565b60606110708261134e565b6110af576040517f08c379a00000000000000000000000000000000000000000000000000000000081526004016110a690613015565b60405180910390fd5b60006006600084815260200190815260200160002080546110cf90613349565b80601f01602080910402602001604051908101604052809291908181526020018280546110fb90613349565b80156111485780601f1061111d57610100808354040283529160200191611148565b820191906000526020600020905b81548152906001019060200180831161112b57829003601f168201915b505050505090506000611159611e7c565b905060008151141561116f5781925050506111b2565b6000825111156111a457808260405160200161118c929190612be6565b604051602081830303815290604052925050506111b2565b6111ad84611e93565b925050505b919050565b6000600560008473ffffffffffffffffffffffffffffffffffffffff1673ffffffffffffffffffffffffffffffffffffffff16815260200190815260200160002060008373ffffffffffffffffffffffffffffffffffffffff1673ffffffffffffffffffffffffffffffffffffffff16815260200190815260200160002060009054906101000a900460ff16905092915050565b6112e18160405160240161125f9190612e55565b6040516020818303038152906040527f41304fac000000000000000000000000000000000000000000000000000000007bffffffffffffffffffffffffffffffffffffffffffffffffffffffff19166020820180517bffffffffffffffffffffffffffffffffffffffffffffffffffffffff8381831617835250505050611f3a565b50565b60007f01ffc9a7000000000000000000000000000000000000000000000000000000007bffffffffffffffffffffffffffffffffffffffffffffffffffffffff1916827bffffffffffffffffffffffffffffffffffffffffffffffffffffffff1916149050919050565b60008073ffffffffffffffffffffffffffffffffffffffff166002600084815260200190815260200160002060009054906101000a900473ffffffffffffffffffffffffffffffffffffffff1673ffffffffffffffffffffffffffffffffffffffff1614159050919050565b600033905090565b816004600083815260200190815260200160002060006101000a81548173ffffffffffffffffffffffffffffffffffffffff021916908373ffffffffffffffffffffffffffffffffffffffff160217905550808273ffffffffffffffffffffffffffffffffffffffff166114358361099a565b73ffffffffffffffffffffffffffffffffffffffff167f8c5be1e5ebec7d5bd14f71427d1e84f3dd0314c0f7b2291e5b200ac8c7c3b92560405160405180910390a45050565b60006114868261134e565b6114c5576040517f08c379a00000000000000000000000000000000000000000000000000000000081526004016114bc90612f55565b60405180910390fd5b60006114d08361099a565b90508073ffffffffffffffffffffffffffffffffffffffff168473ffffffffffffffffffffffffffffffffffffffff16148061153f57508373ffffffffffffffffffffffffffffffffffffffff1661152784610541565b73ffffffffffffffffffffffffffffffffffffffff16145b80611550575061154f81856111b7565b5b91505092915050565b8273ffffffffffffffffffffffffffffffffffffffff166115798261099a565b73ffffffffffffffffffffffffffffffffffffffff16146115cf576040517f08c379a00000000000000000000000000000000000000000000000000000000081526004016115c690612ed5565b60405180910390fd5b600073ffffffffffffffffffffffffffffffffffffffff168273ffffffffffffffffffffffffffffffffffffffff16141561163f576040517f08c379a000000000000000000000000000000000000000000000000000000000815260040161163690612f15565b60405180910390fd5b61164a838383611f63565b6116556000826113c2565b6001600360008573ffffffffffffffffffffffffffffffffffffffff1673ffffffffffffffffffffffffffffffffffffffff16815260200190815260200160002060008282546116a5919061325f565b925050819055506001600360008473ffffffffffffffffffffffffffffffffffffffff1673ffffffffffffffffffffffffffffffffffffffff16815260200190815260200160002060008282546116fc919061317e565b92505081905550816002600083815260200190815260200160002060006101000a81548173ffffffffffffffffffffffffffffffffffffffff021916908373ffffffffffffffffffffffffffffffffffffffff160217905550808273ffffffffffffffffffffffffffffffffffffffff168473ffffffffffffffffffffffffffffffffffffffff167fddf252ad1be2c89b69c2b068fc378daa952ba7f163c4a11628f55a4df523b3ef60405160405180910390a46117bb838383611f68565b505050565b60606000821415611808576040518060400160405280600181526020017f30000000000000000000000000000000000000000000000000000000000000008152509050611968565b600082905060005b6000821461183a578080611823906133ac565b915050600a8261183391906131d4565b9150611810565b60008167ffffffffffffffff81111561187c577f4e487b7100000000000000000000000000000000000000000000000000000000600052604160045260246000fd5b6040519080825280601f01601f1916602001820160405280156118ae5781602001600182028036833780820191505090505b5090505b60008514611961576001826118c7919061325f565b9150600a856118d691906133f5565b60306118e2919061317e565b60f81b81838151811061191e577f4e487b7100000000000000000000000000000000000000000000000000000000600052603260045260246000fd5b60200101907effffffffffffffffffffffffffffffffffffffffffffffffffffffffffffff1916908160001a905350600a8561195a91906131d4565b94506118b2565b8093505050505b919050565b6000816040516020016119809190612bcf565b6040516020818303038152906040528051906020012060001c9050919050565b600081600001549050919050565b606060008251905060008114156119d75760405180602001604052806000815250915050611b67565b600060036002836119e8919061317e565b6119f291906131d4565b60046119fe9190613205565b90506000602082611a0f919061317e565b67ffffffffffffffff811115611a4e577f4e487b7100000000000000000000000000000000000000000000000000000000600052604160045260246000fd5b6040519080825280601f01601f191660200182016040528015611a805781602001600182028036833780820191505090505b5090506000604051806060016040528060408152602001613c25604091399050600181016020830160005b86811015611b245760038101905062ffffff818a015116603f8160121c168401518060081b905060ff603f83600c1c1686015116810190508060081b905060ff603f8360061c1686015116810190508060081b905060ff603f831686015116810190508060e01b90508084526004840193505050611aab565b506003860660018114611b3e5760028114611b4e57611b59565b613d3d60f01b6002830352611b59565b603d60f81b60018303525b508484525050819450505050505b919050565b611b86828260405180602001604052806000815250611f6d565b5050565b611b938261134e565b611bd2576040517f08c379a0000000000000000000000000000000000000000000000000000000008152600401611bc990612fd5565b60405180910390fd5b80600660008481526020019081526020016000209080519060200190611bf992919061235c565b505050565b611c98838383604051602401611c1693929190612e77565b6040516020818303038152906040527fe3849f79000000000000000000000000000000000000000000000000000000007bffffffffffffffffffffffffffffffffffffffffffffffffffffffff19166020820180517bffffffffffffffffffffffffffffffffffffffffffffffffffffffff8381831617835250505050611f3a565b505050565b6001816000016000828254019250508190555050565b8173ffffffffffffffffffffffffffffffffffffffff168373ffffffffffffffffffffffffffffffffffffffff161415611d22576040517f08c379a0000000000000000000000000000000000000000000000000000000008152600401611d1990612f35565b60405180910390fd5b80600560008573ffffffffffffffffffffffffffffffffffffffff1673ffffffffffffffffffffffffffffffffffffffff16815260200190815260200160002060008473ffffffffffffffffffffffffffffffffffffffff1673ffffffffffffffffffffffffffffffffffffffff16815260200190815260200160002060006101000a81548160ff0219169083151502179055508173ffffffffffffffffffffffffffffffffffffffff168373ffffffffffffffffffffffffffffffffffffffff167f17307eab39ab6107e8899845ad3d59bd9653f200f220920489ca2b5937696c3183604051611e139190612e3a565b60405180910390a3505050565b611e2b848484611559565b611e3784848484611fc8565b611e76576040517f08c379a0000000000000000000000000000000000000000000000000000000008152600401611e6d90612eb5565b60405180910390fd5b50505050565b606060405180602001604052806000815250905090565b6060611e9e8261134e565b611edd576040517f08c379a0000000000000000000000000000000000000000000000000000000008152600401611ed490613055565b60405180910390fd5b6000611ee7611e7c565b90506000815111611f075760405180602001604052806000815250611f32565b80611f11846117c0565b604051602001611f22929190612be6565b6040516020818303038152906040525b915050919050565b60008151905060006a636f6e736f6c652e6c6f679050602083016000808483855afa5050505050565b505050565b505050565b611f77838361215f565b611f846000848484611fc8565b611fc3576040517f08c379a0000000000000000000000000000000000000000000000000000000008152600401611fba90612eb5565b60405180910390fd5b505050565b6000611fe98473ffffffffffffffffffffffffffffffffffffffff16612339565b15612152578373ffffffffffffffffffffffffffffffffffffffff1663150b7a026120126113ba565b8786866040518563ffffffff1660e01b81526004016120349493929190612db0565b602060405180830381600087803b15801561204e57600080fd5b505af192505050801561207f57506040513d601f19601f8201168201806040525081019061207c91906126a0565b60015b612102573d80600081146120af576040519150601f19603f3d011682016040523d82523d6000602084013e6120b4565b606091505b506000815114156120fa576040517f08c379a00000000000000000000000000000000000000000000000000000000081526004016120f190612eb5565b60405180910390fd5b805181602001fd5b63150b7a0260e01b7bffffffffffffffffffffffffffffffffffffffffffffffffffffffff1916817bffffffffffffffffffffffffffffffffffffffffffffffffffffffff191614915050612157565b600190505b949350505050565b600073ffffffffffffffffffffffffffffffffffffffff168273ffffffffffffffffffffffffffffffffffffffff1614156121cf576040517f08c379a00000000000000000000000000000000000000000000000000000000081526004016121c690612ff5565b60405180910390fd5b6121d88161134e565b15612218576040517f08c379a000000000000000000000000000000000000000000000000000000000815260040161220f90612ef5565b60405180910390fd5b61222460008383611f63565b6001600360008473ffffffffffffffffffffffffffffffffffffffff1673ffffffffffffffffffffffffffffffffffffffff1681526020019081526020016000206000828254612274919061317e565b92505081905550816002600083815260200190815260200160002060006101000a81548173ffffffffffffffffffffffffffffffffffffffff021916908373ffffffffffffffffffffffffffffffffffffffff160217905550808273ffffffffffffffffffffffffffffffffffffffff16600073ffffffffffffffffffffffffffffffffffffffff167fddf252ad1be2c89b69c2b068fc378daa952ba7f163c4a11628f55a4df523b3ef60405160405180910390a461233560008383611f68565b5050565b6000808273ffffffffffffffffffffffffffffffffffffffff163b119050919050565b82805461236890613349565b90600052602060002090601f01602090048101928261238a57600085556123d1565b82601f106123a357805160ff19168380011785556123d1565b828001600101855582156123d1579182015b828111156123d05782518255916020019190600101906123b5565b5b5090506123de91906123e2565b5090565b5b808211156123fb5760008160009055506001016123e3565b5090565b600061241261240d846130f5565b6130d0565b90508281526020810184848401111561242a57600080fd5b612435848285613307565b509392505050565b60008135905061244c81613ba3565b92915050565b60008135905061246181613bba565b92915050565b60008135905061247681613bd1565b92915050565b60008151905061248b81613bd1565b92915050565b600082601f8301126124a257600080fd5b81356124b28482602086016123ff565b91505092915050565b6000813590506124ca81613be8565b92915050565b6000602082840312156124e257600080fd5b60006124f08482850161243d565b91505092915050565b6000806040838503121561250c57600080fd5b600061251a8582860161243d565b925050602061252b8582860161243d565b9150509250929050565b60008060006060848603121561254a57600080fd5b60006125588682870161243d565b93505060206125698682870161243d565b925050604061257a868287016124bb565b9150509250925092565b6000806000806080858703121561259a57600080fd5b60006125a88782880161243d565b94505060206125b98782880161243d565b93505060406125ca878288016124bb565b925050606085013567ffffffffffffffff8111156125e757600080fd5b6125f387828801612491565b91505092959194509250565b6000806040838503121561261257600080fd5b60006126208582860161243d565b925050602061263185828601612452565b9150509250929050565b6000806040838503121561264e57600080fd5b600061265c8582860161243d565b925050602061266d858286016124bb565b9150509250929050565b60006020828403121561268957600080fd5b600061269784828501612467565b91505092915050565b6000602082840312156126b257600080fd5b60006126c08482850161247c565b91505092915050565b6000602082840312156126db57600080fd5b60006126e9848285016124bb565b91505092915050565b6126fb81613293565b82525050565b61270a816132a5565b82525050565b600061271b8261313b565b6127258185613151565b9350612735818560208601613316565b61273e816134e2565b840191505092915050565b600061275482613146565b61275e8185613162565b935061276e818560208601613316565b612777816134e2565b840191505092915050565b600061278d82613146565b6127978185613173565b93506127a7818560208601613316565b80840191505092915050565b600081546127c081613349565b6127ca8186613173565b945060018216600081146127e557600181146127f657612829565b60ff19831686528186019350612829565b6127ff85613126565b60005b8381101561282157815481890152600182019150602081019050612802565b838801955050505b50505092915050565b600061283f602583613173565b915061284a826134f3565b602582019050919050565b6000612862603283613162565b915061286d82613542565b604082019050919050565b6000612885602583613162565b915061289082613591565b604082019050919050565b60006128a8601c83613162565b91506128b3826135e0565b602082019050919050565b60006128cb600a83613173565b91506128d682613609565b600a82019050919050565b60006128ee602483613162565b91506128f982613632565b604082019050919050565b6000612911601983613162565b915061291c82613681565b602082019050919050565b6000612934600b83613173565b915061293f826136aa565b600b82019050919050565b6000612957602c83613162565b9150612962826136d3565b604082019050919050565b600061297a600d83613173565b915061298582613722565b600d82019050919050565b600061299d606783613173565b91506129a88261374b565b606782019050919050565b60006129c0603883613162565b91506129cb826137e6565b604082019050919050565b60006129e3602a83613162565b91506129ee82613835565b604082019050919050565b6000612a06602983613162565b9150612a1182613884565b604082019050919050565b6000612a29602e83613162565b9150612a34826138d3565b604082019050919050565b6000612a4c600283613173565b9150612a5782613922565b600282019050919050565b6000612a6f602083613162565b9150612a7a8261394b565b602082019050919050565b6000612a92603183613162565b9150612a9d82613974565b604082019050919050565b6000612ab5602c83613162565b9150612ac0826139c3565b604082019050919050565b6000612ad8602f83613162565b9150612ae382613a12565b604082019050919050565b6000612afb600a83613173565b9150612b0682613a61565b600a82019050919050565b6000612b1e602183613162565b9150612b2982613a8a565b604082019050919050565b6000612b41600a83613173565b9150612b4c82613ad9565b600a82019050919050565b6000612b64601d83613173565b9150612b6f82613b02565b601d82019050919050565b6000612b87603183613162565b9150612b9282613b2b565b604082019050919050565b6000612baa600583613173565b9150612bb582613b7a565b600582019050919050565b612bc9816132fd565b82525050565b6000612bdb8284612782565b915081905092915050565b6000612bf28285612782565b9150612bfe8284612782565b91508190509392505050565b6000612c168286612782565b9150612c228285612782565b9150612c2e8284612782565b9150819050949350505050565b6000612c4782876127b3565b9150612c538286612782565b9150612c5f82856127b3565b9150612c6b8284612782565b9150612c768261296d565b915081905095945050505050565b6000612c8f82612832565b9150612c9b8284612782565b915081905092915050565b6000612cb1826128be565b9150612cbd8284612782565b915081905092915050565b6000612cd382612927565b9150612cdf8284612782565b915081905092915050565b6000612cf582612aee565b9150612d018285612782565b9150612d0c82612990565b9150612d188284612782565b9150612d2382612a3f565b91508190509392505050565b6000612d3a82612b34565b9150612d468284612782565b915081905092915050565b6000612d5c82612b57565b9150612d688284612782565b915081905092915050565b6000612d7e82612b9d565b9150612d8a8284612782565b915081905092915050565b6000602082019050612daa60008301846126f2565b92915050565b6000608082019050612dc560008301876126f2565b612dd260208301866126f2565b612ddf6040830185612bc0565b8181036060830152612df18184612710565b905095945050505050565b6000606082019050612e1160008301866126f2565b612e1e6020830185612bc0565b8181036040830152612e308184612749565b9050949350505050565b6000602082019050612e4f6000830184612701565b92915050565b60006020820190508181036000830152612e6f8184612749565b905092915050565b60006060820190508181036000830152612e918186612749565b9050612ea06020830185612bc0565b612ead60408301846126f2565b949350505050565b60006020820190508181036000830152612ece81612855565b9050919050565b60006020820190508181036000830152612eee81612878565b9050919050565b60006020820190508181036000830152612f0e8161289b565b9050919050565b60006020820190508181036000830152612f2e816128e1565b9050919050565b60006020820190508181036000830152612f4e81612904565b9050919050565b60006020820190508181036000830152612f6e8161294a565b9050919050565b60006020820190508181036000830152612f8e816129b3565b9050919050565b60006020820190508181036000830152612fae816129d6565b9050919050565b60006020820190508181036000830152612fce816129f9565b9050919050565b60006020820190508181036000830152612fee81612a1c565b9050919050565b6000602082019050818103600083015261300e81612a62565b9050919050565b6000602082019050818103600083015261302e81612a85565b9050919050565b6000602082019050818103600083015261304e81612aa8565b9050919050565b6000602082019050818103600083015261306e81612acb565b9050919050565b6000602082019050818103600083015261308e81612b11565b9050919050565b600060208201905081810360008301526130ae81612b7a565b9050919050565b60006020820190506130ca6000830184612bc0565b92915050565b60006130da6130eb565b90506130e6828261337b565b919050565b6000604051905090565b600067ffffffffffffffff8211156131105761310f6134b3565b5b613119826134e2565b9050602081019050919050565b60008190508160005260206000209050919050565b600081519050919050565b600081519050919050565b600082825260208201905092915050565b600082825260208201905092915050565b600081905092915050565b6000613189826132fd565b9150613194836132fd565b9250827fffffffffffffffffffffffffffffffffffffffffffffffffffffffffffffffff038211156131c9576131c8613426565b5b828201905092915050565b60006131df826132fd565b91506131ea836132fd565b9250826131fa576131f9613455565b5b828204905092915050565b6000613210826132fd565b915061321b836132fd565b9250817fffffffffffffffffffffffffffffffffffffffffffffffffffffffffffffffff048311821515161561325457613253613426565b5b828202905092915050565b600061326a826132fd565b9150613275836132fd565b92508282101561328857613287613426565b5b828203905092915050565b600061329e826132dd565b9050919050565b60008115159050919050565b60007fffffffff0000000000000000000000000000000000000000000000000000000082169050919050565b600073ffffffffffffffffffffffffffffffffffffffff82169050919050565b6000819050919050565b82818337600083830152505050565b60005b83811015613334578082015181840152602081019050613319565b83811115613343576000848401525b50505050565b6000600282049050600182168061336157607f821691505b6020821081141561337557613374613484565b5b50919050565b613384826134e2565b810181811067ffffffffffffffff821117156133a3576133a26134b3565b5b80604052505050565b60006133b7826132fd565b91507fffffffffffffffffffffffffffffffffffffffffffffffffffffffffffffffff8214156133ea576133e9613426565b5b600182019050919050565b6000613400826132fd565b915061340b836132fd565b92508261341b5761341a613455565b5b828206905092915050565b7f4e487b7100000000000000000000000000000000000000000000000000000000600052601160045260246000fd5b7f4e487b7100000000000000000000000000000000000000000000000000000000600052601260045260246000fd5b7f4e487b7100000000000000000000000000000000000000000000000000000000600052602260045260246000fd5b7f4e487b7100000000000000000000000000000000000000000000000000000000600052604160045260246000fd5b6000601f19601f8301169050919050565b7f68747470733a2f2f6e6674707265766965772e30786465762e636f6465732f3f60008201527f636f64653d000000000000000000000000000000000000000000000000000000602082015250565b7f4552433732313a207472616e7366657220746f206e6f6e20455243373231526560008201527f63656976657220696d706c656d656e7465720000000000000000000000000000602082015250565b7f4552433732313a207472616e736665722066726f6d20696e636f72726563742060008201527f6f776e6572000000000000000000000000000000000000000000000000000000602082015250565b7f4552433732313a20746f6b656e20616c7265616479206d696e74656400000000600082015250565b7f54484952445f574f524400000000000000000000000000000000000000000000600082015250565b7f4552433732313a207472616e7366657220746f20746865207a65726f2061646460008201527f7265737300000000000000000000000000000000000000000000000000000000602082015250565b7f4552433732313a20617070726f766520746f2063616c6c657200000000000000600082015250565b7f5345434f4e445f574f5244000000000000000000000000000000000000000000600082015250565b7f4552433732313a206f70657261746f7220717565727920666f72206e6f6e657860008201527f697374656e7420746f6b656e0000000000000000000000000000000000000000602082015250565b7f3c2f746578743e3c2f7376673e00000000000000000000000000000000000000600082015250565b7f222c20226465736372697074696f6e223a20224120686967686c79206163636c60008201527f61696d656420636f6c6c656374696f6e206f6620436f736d6963204e4654732e60208201527f222c2022696d616765223a2022646174613a696d6167652f7376672b786d6c3b60408201527f6261736536342c00000000000000000000000000000000000000000000000000606082015250565b7f4552433732313a20617070726f76652063616c6c6572206973206e6f74206f7760008201527f6e6572206e6f7220617070726f76656420666f7220616c6c0000000000000000602082015250565b7f4552433732313a2062616c616e636520717565727920666f7220746865207a6560008201527f726f206164647265737300000000000000000000000000000000000000000000602082015250565b7f4552433732313a206f776e657220717565727920666f72206e6f6e657869737460008201527f656e7420746f6b656e0000000000000000000000000000000000000000000000602082015250565b7f45524337323155524953746f726167653a2055524920736574206f66206e6f6e60008201527f6578697374656e7420746f6b656e000000000000000000000000000000000000602082015250565b7f227d000000000000000000000000000000000000000000000000000000000000600082015250565b7f4552433732313a206d696e7420746f20746865207a65726f2061646472657373600082015250565b7f45524337323155524953746f726167653a2055524920717565727920666f722060008201527f6e6f6e6578697374656e7420746f6b656e000000000000000000000000000000602082015250565b7f4552433732313a20617070726f76656420717565727920666f72206e6f6e657860008201527f697374656e7420746f6b656e0000000000000000000000000000000000000000602082015250565b7f4552433732314d657461646174613a2055524920717565727920666f72206e6f60008201527f6e6578697374656e7420746f6b656e0000000000000000000000000000000000602082015250565b7f7b226e616d65223a202200000000000000000000000000000000000000000000600082015250565b7f4552433732313a20617070726f76616c20746f2063757272656e74206f776e6560008201527f7200000000000000000000000000000000000000000000000000000000000000602082015250565b7f46495253545f574f524400000000000000000000000000000000000000000000600082015250565b7f646174613a6170706c69636174696f6e2f6a736f6e3b6261736536342c000000600082015250565b7f4552433732313a207472616e736665722063616c6c6572206973206e6f74206f60008201527f776e6572206e6f7220617070726f766564000000000000000000000000000000602082015250565b7f434f4c4f52000000000000000000000000000000000000000000000000000000600082015250565b613bac81613293565b8114613bb757600080fd5b50565b613bc3816132a5565b8114613bce57600080fd5b50565b613bda816132b1565b8114613be557600080fd5b50565b613bf1816132fd565b8114613bfc57600080fd5b5056fe416e204e465420772f20494420257320686173206265656e206d696e74656420746f2025734142434445464748494a4b4c4d4e4f505152535455565758595a6162636465666768696a6b6c6d6e6f707172737475767778797a303132333435363738392b2fa26469706673582212200dcba28633086e95a9a4bdeff4b2a0b3b3d619c662024f8a5f5f953b4461bdbe64736f6c634300080400333c73766720786d6c6e733d27687474703a2f2f7777772e77332e6f72672f323030302f73766727207072657365727665417370656374526174696f3d27784d696e594d696e206d656574272076696577426f783d273020302033353020333530273e3c7374796c653e2e62617365207b2066696c6c3a2077686974653b20666f6e742d66616d696c793a2073657269663b20666f6e742d73697a653a20323470783b207d3c2f7374796c653e3c726563742077696474683d273130302527206865696768743d2731303025272066696c6c3d27272f3e3c7465787420783d273530252720793d273530252720636c6173733d27626173652720646f6d696e616e742d626173656c696e653d276d6964646c652720746578742d616e63686f723d276d6964646c65273e",
  "linkReferences": {},
  "deployedLinkReferences": {}
}